{
    "_format": "hh-sol-artifact-1",
    "contractName": "AssetUpperBound",
    "sourceName": "contracts/v0.1/AssetUpperBound.sol",
    "abi": [
        {
            "anonymous": false,
            "inputs": [
                {
                    "indexed": true,
                    "internalType": "address",
                    "name": "previousOwner",
                    "type": "address"
                },
                {
                    "indexed": true,
                    "internalType": "address",
                    "name": "newOwner",
                    "type": "address"
                }
            ],
            "name": "OwnershipTransferred",
            "type": "event"
        },
        {
            "anonymous": false,
            "inputs": [
                {
                    "indexed": true,
                    "internalType": "uint256",
                    "name": "assetID",
                    "type": "uint256"
                },
                {
                    "indexed": false,
                    "internalType": "uint256",
                    "name": "upperBound",
                    "type": "uint256"
                }
            ],
            "name": "UpperBoundSet",
            "type": "event"
        },
        {
            "inputs": [
                {
                    "internalType": "uint256",
                    "name": "_assetID",
                    "type": "uint256"
                }
            ],
            "name": "getUpperBound",
            "outputs": [
                {
                    "internalType": "uint256",
                    "name": "",
                    "type": "uint256"
                }
            ],
            "stateMutability": "view",
            "type": "function"
        },
        {
            "inputs": [],
            "name": "owner",
            "outputs": [
                {
                    "internalType": "address",
                    "name": "",
                    "type": "address"
                }
            ],
            "stateMutability": "view",
            "type": "function"
        },
        {
            "inputs": [],
            "name": "renounceOwnership",
            "outputs": [],
            "stateMutability": "nonpayable",
            "type": "function"
        },
        {
            "inputs": [
                {
                    "internalType": "uint256",
                    "name": "_assetID",
                    "type": "uint256"
                },
                {
                    "internalType": "uint256",
                    "name": "_upperBound",
                    "type": "uint256"
                }
            ],
            "name": "setUpperBound",
            "outputs": [],
            "stateMutability": "nonpayable",
            "type": "function"
        },
        {
            "inputs": [
                {
                    "internalType": "address",
                    "name": "newOwner",
                    "type": "address"
                }
            ],
            "name": "transferOwnership",
            "outputs": [],
            "stateMutability": "nonpayable",
            "type": "function"
        }
    ],
    "bytecode": "0x608060405234801561001057600080fd5b5061001a3361001f565b61006f565b600080546001600160a01b038381166001600160a01b0319831681178455604051919092169283917f8be0079c531659141344cd1fd0a4f28419497f9722a3daafe3b4186f6b6457e09190a35050565b6103c28061007e6000396000f3fe608060405234801561001057600080fd5b50600436106100675760003560e01c80638da5cb5b116100505780638da5cb5b14610089578063d7876291146100a9578063f2fde38b146100d757600080fd5b806336c8856b1461006c578063715018a614610081575b600080fd5b61007f61007a366004610393565b6100ea565b005b61007f61019a565b6000546040516001600160a01b0390911681526020015b60405180910390f35b6100c96100b736600461037a565b60009081526001602052604090205490565b6040519081526020016100a0565b61007f6100e536600461034a565b610200565b6000546001600160a01b031633146101495760405162461bcd60e51b815260206004820181905260248201527f4f776e61626c653a2063616c6c6572206973206e6f7420746865206f776e657260448201526064015b60405180910390fd5b600082815260016020526040908190208290555182907f4745108fe432eb4e630177b0117dad9218e79b2a93d7d87d375676c9d05f82349061018e9084815260200190565b60405180910390a25050565b6000546001600160a01b031633146101f45760405162461bcd60e51b815260206004820181905260248201527f4f776e61626c653a2063616c6c6572206973206e6f7420746865206f776e65726044820152606401610140565b6101fe60006102e2565b565b6000546001600160a01b0316331461025a5760405162461bcd60e51b815260206004820181905260248201527f4f776e61626c653a2063616c6c6572206973206e6f7420746865206f776e65726044820152606401610140565b6001600160a01b0381166102d65760405162461bcd60e51b815260206004820152602660248201527f4f776e61626c653a206e6577206f776e657220697320746865207a65726f206160448201527f64647265737300000000000000000000000000000000000000000000000000006064820152608401610140565b6102df816102e2565b50565b600080546001600160a01b038381167fffffffffffffffffffffffff0000000000000000000000000000000000000000831681178455604051919092169283917f8be0079c531659141344cd1fd0a4f28419497f9722a3daafe3b4186f6b6457e09190a35050565b60006020828403121561035c57600080fd5b81356001600160a01b038116811461037357600080fd5b9392505050565b60006020828403121561038c57600080fd5b5035919050565b600080604083850312156103a657600080fd5b5050803592602090910135915056fea164736f6c6343000807000a",
    "linkReferences": {},
    "deployedLinkReferences": {}
}