{
  "_format": "hh-sol-artifact-1",
  "contractName": "ERC20Tube",
  "sourceName": "contracts/v0.2/ERC20Tube.sol",
  "abi": [
    {
      "inputs": [
        {
          "internalType": "uint256",
          "name": "_tubeID",
          "type": "uint256"
        },
        {
          "internalType": "contract ILedger",
          "name": "_ledger",
          "type": "address"
        },
        {
          "internalType": "contract ILord",
          "name": "_lord",
          "type": "address"
        },
        {
          "internalType": "contract IVerifier",
          "name": "_verifier",
          "type": "address"
        },
        {
          "internalType": "address",
          "name": "_safe",
          "type": "address"
        },
        {
          "internalType": "uint256",
          "name": "_initNonce",
          "type": "uint256"
        }
      ],
      "stateMutability": "nonpayable",
      "type": "constructor"
    },
    {
      "anonymous": false,
      "inputs": [
        {
          "indexed": true,
          "internalType": "address",
          "name": "operator",
          "type": "address"
        }
      ],
      "name": "EmergencyOperatorSet",
      "type": "event"
    },
    {
      "anonymous": false,
      "inputs": [
        {
          "indexed": true,
          "internalType": "address",
          "name": "lord",
          "type": "address"
        }
      ],
      "name": "LordUpdated",
      "type": "event"
    },
    {
      "anonymous": false,
      "inputs": [
        {
          "indexed": true,
          "internalType": "address",
          "name": "previousOwner",
          "type": "address"
        },
        {
          "indexed": true,
          "internalType": "address",
          "name": "newOwner",
          "type": "address"
        }
      ],
      "name": "OwnershipTransferred",
      "type": "event"
    },
    {
      "anonymous": false,
      "inputs": [
        {
          "indexed": false,
          "internalType": "address",
          "name": "account",
          "type": "address"
        }
      ],
      "name": "Paused",
      "type": "event"
    },
    {
      "anonymous": false,
      "inputs": [
        {
          "indexed": true,
          "internalType": "uint256",
          "name": "nonce",
          "type": "uint256"
        },
        {
          "indexed": false,
          "internalType": "address",
          "name": "sender",
          "type": "address"
        },
        {
          "indexed": true,
          "internalType": "address",
          "name": "token",
          "type": "address"
        },
        {
          "indexed": false,
          "internalType": "uint256",
          "name": "amount",
          "type": "uint256"
        },
        {
          "indexed": true,
          "internalType": "uint256",
          "name": "targetTubeID",
          "type": "uint256"
        },
        {
          "indexed": false,
          "internalType": "address",
          "name": "recipient",
          "type": "address"
        },
        {
          "indexed": false,
          "internalType": "uint256",
          "name": "fee",
          "type": "uint256"
        }
      ],
      "name": "Receipt",
      "type": "event"
    },
    {
      "anonymous": false,
      "inputs": [
        {
          "indexed": true,
          "internalType": "address",
          "name": "safe",
          "type": "address"
        }
      ],
      "name": "SafeUpdated",
      "type": "event"
    },
    {
      "anonymous": false,
      "inputs": [
        {
          "indexed": true,
          "internalType": "bytes32",
          "name": "key",
          "type": "bytes32"
        },
        {
          "indexed": false,
          "internalType": "address[]",
          "name": "validators",
          "type": "address[]"
        }
      ],
      "name": "Settled",
      "type": "event"
    },
    {
      "anonymous": false,
      "inputs": [
        {
          "indexed": false,
          "internalType": "uint256",
          "name": "tubeID",
          "type": "uint256"
        },
        {
          "indexed": false,
          "internalType": "uint256",
          "name": "feeRate",
          "type": "uint256"
        },
        {
          "indexed": false,
          "internalType": "bool",
          "name": "enabled",
          "type": "bool"
        }
      ],
      "name": "TubeInfoUpdated",
      "type": "event"
    },
    {
      "anonymous": false,
      "inputs": [
        {
          "indexed": false,
          "internalType": "address",
          "name": "account",
          "type": "address"
        }
      ],
      "name": "Unpaused",
      "type": "event"
    },
    {
      "inputs": [
        {
          "internalType": "address",
          "name": "_token",
          "type": "address"
        },
        {
          "internalType": "uint256",
          "name": "_amount",
          "type": "uint256"
        },
        {
          "internalType": "uint256",
          "name": "_targetTubeID",
          "type": "uint256"
        }
      ],
      "name": "deposit",
      "outputs": [],
      "stateMutability": "nonpayable",
      "type": "function"
    },
    {
      "inputs": [
        {
          "internalType": "address",
          "name": "_token",
          "type": "address"
        },
        {
          "internalType": "uint256",
          "name": "_amount",
          "type": "uint256"
        },
        {
          "internalType": "uint256",
          "name": "_targetTubeID",
          "type": "uint256"
        },
        {
          "internalType": "address",
          "name": "_to",
          "type": "address"
        }
      ],
      "name": "depositTo",
      "outputs": [],
      "stateMutability": "nonpayable",
      "type": "function"
    },
    {
      "inputs": [
        {
          "internalType": "uint256",
          "name": "_tubeID",
          "type": "uint256"
        }
      ],
      "name": "destinationTubeInfo",
      "outputs": [
        {
          "components": [
            {
              "internalType": "uint256",
              "name": "rate",
              "type": "uint256"
            },
            {
              "internalType": "bool",
              "name": "enabled",
              "type": "bool"
            }
          ],
          "internalType": "struct ERC20Tube.TubeInfo",
          "name": "",
          "type": "tuple"
        }
      ],
      "stateMutability": "view",
      "type": "function"
    },
    {
      "inputs": [
        {
          "internalType": "uint256",
          "name": "_srcTubeID",
          "type": "uint256"
        },
        {
          "internalType": "uint256",
          "name": "_nonce",
          "type": "uint256"
        },
        {
          "internalType": "address",
          "name": "_token",
          "type": "address"
        },
        {
          "internalType": "address",
          "name": "_recipient",
          "type": "address"
        },
        {
          "internalType": "uint256",
          "name": "_amount",
          "type": "uint256"
        }
      ],
      "name": "genKey",
      "outputs": [
        {
          "internalType": "bytes32",
          "name": "",
          "type": "bytes32"
        }
      ],
      "stateMutability": "view",
      "type": "function"
    },
    {
      "inputs": [
        {
          "internalType": "bytes32",
          "name": "key",
          "type": "bytes32"
        }
      ],
      "name": "isSettled",
      "outputs": [
        {
          "internalType": "bool",
          "name": "",
          "type": "bool"
        }
      ],
      "stateMutability": "view",
      "type": "function"
    },
    {
      "inputs": [],
      "name": "ledger",
      "outputs": [
        {
          "internalType": "contract ILedger",
          "name": "",
          "type": "address"
        }
      ],
      "stateMutability": "view",
      "type": "function"
    },
    {
      "inputs": [],
      "name": "lord",
      "outputs": [
        {
          "internalType": "contract ILord",
          "name": "",
          "type": "address"
        }
      ],
      "stateMutability": "view",
      "type": "function"
    },
    {
      "inputs": [],
      "name": "nonce",
      "outputs": [
        {
          "internalType": "uint256",
          "name": "",
          "type": "uint256"
        }
      ],
      "stateMutability": "view",
      "type": "function"
    },
    {
      "inputs": [],
      "name": "owner",
      "outputs": [
        {
          "internalType": "address",
          "name": "",
          "type": "address"
        }
      ],
      "stateMutability": "view",
      "type": "function"
    },
    {
      "inputs": [],
      "name": "pause",
      "outputs": [],
      "stateMutability": "nonpayable",
      "type": "function"
    },
    {
      "inputs": [],
      "name": "paused",
      "outputs": [
        {
          "internalType": "bool",
          "name": "",
          "type": "bool"
        }
      ],
      "stateMutability": "view",
      "type": "function"
    },
    {
      "inputs": [],
      "name": "renounceOwnership",
      "outputs": [],
      "stateMutability": "nonpayable",
      "type": "function"
    },
    {
      "inputs": [],
      "name": "safe",
      "outputs": [
        {
          "internalType": "address",
          "name": "",
          "type": "address"
        }
      ],
      "stateMutability": "view",
      "type": "function"
    },
    {
      "inputs": [
        {
          "internalType": "uint256",
          "name": "_tubeID",
          "type": "uint256"
        },
        {
          "internalType": "uint256",
          "name": "_feeRate",
          "type": "uint256"
        },
        {
          "internalType": "bool",
          "name": "_enabled",
          "type": "bool"
        }
      ],
      "name": "setDestinationTube",
      "outputs": [],
      "stateMutability": "nonpayable",
      "type": "function"
    },
    {
      "inputs": [
        {
          "internalType": "address",
          "name": "_operator",
          "type": "address"
        }
      ],
      "name": "setEmergencyOperator",
      "outputs": [],
      "stateMutability": "nonpayable",
      "type": "function"
    },
    {
      "inputs": [
        {
          "internalType": "contract ILord",
          "name": "_lord",
          "type": "address"
        }
      ],
      "name": "setLord",
      "outputs": [],
      "stateMutability": "nonpayable",
      "type": "function"
    },
    {
      "inputs": [
        {
          "internalType": "address",
          "name": "_safe",
          "type": "address"
        }
      ],
      "name": "setSafe",
      "outputs": [],
      "stateMutability": "nonpayable",
      "type": "function"
    },
    {
      "inputs": [
        {
          "internalType": "address",
          "name": "newOwner",
          "type": "address"
        }
      ],
      "name": "transferOwnership",
      "outputs": [],
      "stateMutability": "nonpayable",
      "type": "function"
    },
    {
      "inputs": [],
      "name": "tubeID",
      "outputs": [
        {
          "internalType": "uint256",
          "name": "",
          "type": "uint256"
        }
      ],
      "stateMutability": "view",
      "type": "function"
    },
    {
      "inputs": [],
      "name": "unpause",
      "outputs": [],
      "stateMutability": "nonpayable",
      "type": "function"
    },
    {
      "inputs": [],
      "name": "verifier",
      "outputs": [
        {
          "internalType": "contract IVerifier",
          "name": "",
          "type": "address"
        }
      ],
      "stateMutability": "view",
      "type": "function"
    },
    {
      "inputs": [
        {
          "internalType": "uint256",
          "name": "_srcTubeID",
          "type": "uint256"
        },
        {
          "internalType": "uint256",
          "name": "_nonce",
          "type": "uint256"
        },
        {
          "internalType": "address",
          "name": "_token",
          "type": "address"
        },
        {
          "internalType": "address",
          "name": "_recipient",
          "type": "address"
        },
        {
          "internalType": "uint256",
          "name": "_amount",
          "type": "uint256"
        },
        {
          "internalType": "bytes",
          "name": "_signatures",
          "type": "bytes"
        }
      ],
      "name": "withdraw",
      "outputs": [],
      "stateMutability": "nonpayable",
      "type": "function"
    },
    {
      "inputs": [
        {
          "internalType": "address payable",
          "name": "_to",
          "type": "address"
        }
      ],
      "name": "withdrawCoin",
      "outputs": [],
      "stateMutability": "nonpayable",
      "type": "function"
    },
    {
      "inputs": [
        {
          "internalType": "address",
          "name": "_to",
          "type": "address"
        },
        {
          "internalType": "contract IERC20",
          "name": "_token",
          "type": "address"
        }
      ],
      "name": "withdrawToken",
      "outputs": [],
      "stateMutability": "nonpayable",
      "type": "function"
    }
  ],
  "bytecode": "0x60806040523480156200001157600080fd5b5060405162001f6d38038062001f6d833981016040819052620000349162000161565b6200003f3362000111565b6000805460ff60a01b19168155600180556003879055600480546001600160a01b038089166001600160a01b03199283161790925560058054928816929091168217905560405190917f709dc3c1241091107656b907d68eb690a999b90156fd0814e832ca64b3df848691a2600680546001600160a01b038086166001600160a01b0319928316179092556007805492851692909116821790556040517f0ba726854996c35c3b65654380d718bfc2515d517bc26790fc8051b1d8da548590600090a260085550620001f69350505050565b600080546001600160a01b038381166001600160a01b0319831681178455604051919092169283917f8be0079c531659141344cd1fd0a4f28419497f9722a3daafe3b4186f6b6457e09190a35050565b60008060008060008060c087890312156200017b57600080fd5b8651955060208701516200018f81620001dd565b6040880151909550620001a281620001dd565b6060880151909450620001b581620001dd565b6080880151909350620001c881620001dd565b8092505060a087015190509295509295509295565b6001600160a01b0381168114620001f357600080fd5b50565b611d6780620002066000396000f3fe608060405234801561001057600080fd5b50600436106101985760003560e01c8063715018a6116100e3578063a2d493511161008c578063bd07f3c911610066578063bd07f3c914610388578063c015cdf21461039b578063f2fde38b1461040d57600080fd5b8063a2d4935114610359578063a6d1ebe11461036c578063affed0e01461037f57600080fd5b806387622b93116100bd57806387622b93146102c35780638b1ef73a146102da5780638da5cb5b1461034857600080fd5b8063715018a6146102a057806378353d9a146102a85780638456cb59146102bb57600080fd5b80633f4ba83a116101455780635a73928f1161011f5780635a73928f1461025c5780635c975abb1461026f5780635db0cb941461028d57600080fd5b80633f4ba83a1461022e5780635379a5cb1461023657806356397c351461024957600080fd5b8063277b5c7a11610176578063277b5c7a146101f55780632b7ac3f3146102085780633aeac4e11461021b57600080fd5b80630958654c1461019d5780630efe6a8b146101b2578063186f0354146101c5575b600080fd5b6101b06101ab366004611809565b610420565b005b6101b06101c036600461185f565b61048b565b6007546101d8906001600160a01b031681565b6040516001600160a01b0390911681526020015b60405180910390f35b6101b0610203366004611a4f565b61049c565b6006546101d8906001600160a01b031681565b6101b0610229366004611826565b610890565b6101b0610980565b6101b0610244366004611894565b6109e4565b6004546101d8906001600160a01b031681565b6101b061026a366004611809565b610cd9565b600054600160a01b900460ff165b60405190151581526020016101ec565b6101b061029b366004611809565b610d3d565b6101b0610de1565b6005546101d8906001600160a01b031681565b6101b0610e45565b6102cc60035481565b6040519081526020016101ec565b61032b6102e83660046119cb565b6040805180820190915260008082526020820152506000908152600960209081526040918290208251808401909352805483526001015460ff1615159082015290565b6040805182518152602092830151151592810192909252016101ec565b6000546001600160a01b03166101d8565b6101b0610367366004611809565b610ea7565b6101b061037a366004611b25565b610f4b565b6102cc60085481565b61027d6103963660046119cb565b611075565b6102cc6103a93660046119fd565b600354604080516020808201989098528082019690965260608087019290925293811b6bffffffffffffffffffffffff19908116608087015260948601929092529190911b1660b4830152805160a881840301815260c89092019052805191012090565b6101b061041b366004611809565b6110fc565b6000546001600160a01b0316331461047f5760405162461bcd60e51b815260206004820181905260248201527f4f776e61626c653a2063616c6c6572206973206e6f7420746865206f776e657260448201526064015b60405180910390fd5b610488816111db565b50565b610497838383336109e4565b505050565b600260015414156104ef5760405162461bcd60e51b815260206004820152601f60248201527f5265656e7472616e637947756172643a207265656e7472616e742063616c6c006044820152606401610476565b6002600155600054600160a01b900460ff16156105415760405162461bcd60e51b815260206004820152601060248201526f14185d5cd8589b194e881c185d5cd95960821b6044820152606401610476565b8161058e5760405162461bcd60e51b815260206004820152600b60248201527f616d6f756e7420697320300000000000000000000000000000000000000000006044820152606401610476565b6001600160a01b0383166105e45760405162461bcd60e51b815260206004820152601160248201527f696e76616c696420726563697069656e740000000000000000000000000000006044820152606401610476565b604181516105f29190611ce1565b1561063f5760405162461bcd60e51b815260206004820152601860248201527f696e76616c6964207369676e6174757265206c656e67746800000000000000006044820152606401610476565b6003546040805160208082018a90528183018990526060808301949094526bffffffffffffffffffffffff1988851b81166080840152609483018790529387901b90931660b4820152815180820360a801815260c8820192839052805193019290922060045463b5c645bd60e01b90925260cc8301819052916001600160a01b039091169063b5c645bd9060ec01600060405180830381600087803b1580156106e757600080fd5b505af11580156106fb573d6000803e3d6000fd5b50506006546040516312c572c160e11b8152600093508392506001600160a01b039091169063258ae582906107369086908890600401611bf3565b60006040518083038186803b15801561074e57600080fd5b505afa158015610762573d6000803e3d6000fd5b505050506040513d6000823e601f3d908101601f1916820160405261078a91908101906118fb565b91509150816107db5760405162461bcd60e51b815260206004820152601760248201527f696e73756666696369656e742076616c696461746f72730000000000000000006044820152606401610476565b600554604051636361ddf360e11b81526001600160a01b0389811660048301528881166024830152604482018890529091169063c6c3bbe690606401600060405180830381600087803b15801561083157600080fd5b505af1158015610845573d6000803e3d6000fd5b50505050827fe24922ac8cf2a1430fb8c7ce6a9125d7db5076a1eb2cefced90e82d6fcb24db0826040516108799190611ba6565b60405180910390a250506001805550505050505050565b6000546001600160a01b031633146108ea5760405162461bcd60e51b815260206004820181905260248201527f4f776e61626c653a2063616c6c6572206973206e6f7420746865206f776e65726044820152606401610476565b6040516370a0823160e01b81523060048201526000906001600160a01b038316906370a082319060240160206040518083038186803b15801561092c57600080fd5b505afa158015610940573d6000803e3d6000fd5b505050506040513d601f19601f8201168201806040525081019061096491906119e4565b90508015610497576104976001600160a01b0383168483611225565b6002546001600160a01b031633146109da5760405162461bcd60e51b815260206004820181905260248201527f63616c6c6572206973206e6f7420656d657267656e6379206f70657261746f726044820152606401610476565b6109e26112b5565b565b60026001541415610a375760405162461bcd60e51b815260206004820152601f60248201527f5265656e7472616e637947756172643a207265656e7472616e742063616c6c006044820152606401610476565b6002600155600054600160a01b900460ff1615610a895760405162461bcd60e51b815260206004820152601060248201526f14185d5cd8589b194e881c185d5cd95960821b6044820152606401610476565b6001600160a01b038116610adf5760405162461bcd60e51b815260206004820152601160248201527f696e76616c696420726563697069656e740000000000000000000000000000006044820152606401610476565b60008311610b2f5760405162461bcd60e51b815260206004820152600e60248201527f696e76616c696420616d6f756e740000000000000000000000000000000000006044820152606401610476565b6000828152600960209081526040918290208251808401909352805483526001015460ff161515908201819052610ba85760405162461bcd60e51b815260206004820152601360248201527f696e76616c69642064657374696e6174696f6e000000000000000000000000006044820152606401610476565b805160009015610bfd57815161271090610bc29087611c64565b610bcc9190611c50565b90508015610bfd57610bde8186611c83565b600754909550610bfd906001600160a01b03888116913391168461135b565b60405163079cc67960e41b8152336004820152602481018690526001600160a01b038716906379cc679090604401600060405180830381600087803b158015610c4557600080fd5b505af1158015610c59573d6000803e3d6000fd5b5050600880548793506001600160a01b038a169250906000610c7a83611cc6565b9091555060408051338152602081018a90526001600160a01b038816818301526060810186905290517f9cc019a8c1ed04f1d296410e07c9f2c92849081a15a108e6289724e97953d5d39181900360800190a450506001805550505050565b6000546001600160a01b03163314610d335760405162461bcd60e51b815260206004820181905260248201527f4f776e61626c653a2063616c6c6572206973206e6f7420746865206f776e65726044820152606401610476565b6104888147611399565b6000546001600160a01b03163314610d975760405162461bcd60e51b815260206004820181905260248201527f4f776e61626c653a2063616c6c6572206973206e6f7420746865206f776e65726044820152606401610476565b600780546001600160a01b0319166001600160a01b0383169081179091556040517f0ba726854996c35c3b65654380d718bfc2515d517bc26790fc8051b1d8da548590600090a250565b6000546001600160a01b03163314610e3b5760405162461bcd60e51b815260206004820181905260248201527f4f776e61626c653a2063616c6c6572206973206e6f7420746865206f776e65726044820152606401610476565b6109e260006114b2565b6002546001600160a01b03163314610e9f5760405162461bcd60e51b815260206004820181905260248201527f63616c6c6572206973206e6f7420656d657267656e6379206f70657261746f726044820152606401610476565b6109e2611502565b6000546001600160a01b03163314610f015760405162461bcd60e51b815260206004820181905260248201527f4f776e61626c653a2063616c6c6572206973206e6f7420746865206f776e65726044820152606401610476565b600580546001600160a01b0319166001600160a01b0383169081179091556040517f709dc3c1241091107656b907d68eb690a999b90156fd0814e832ca64b3df848690600090a250565b6000546001600160a01b03163314610fa55760405162461bcd60e51b815260206004820181905260248201527f4f776e61626c653a2063616c6c6572206973206e6f7420746865206f776e65726044820152606401610476565b612710821115610ff75760405162461bcd60e51b815260206004820152601060248201527f696e76616c6964206665652072617465000000000000000000000000000000006044820152606401610476565b604080518082018252838152821515602080830182815260008881526009835285902093518455516001909301805460ff19169315159390931790925582518681529182018590528183015290517f3d86dc5b78959889a7cc5db345a7c77a4d1b7a65a1db9de105cac31ea379320b916060908290030190a1505050565b6004805460405163023aa9ab60e61b81529182018390526000916001600160a01b0390911690638eaa6ac09060240160206040518083038186803b1580156110bc57600080fd5b505afa1580156110d0573d6000803e3d6000fd5b505050506040513d601f19601f820116820180604052508101906110f491906119e4565b151592915050565b6000546001600160a01b031633146111565760405162461bcd60e51b815260206004820181905260248201527f4f776e61626c653a2063616c6c6572206973206e6f7420746865206f776e65726044820152606401610476565b6001600160a01b0381166111d25760405162461bcd60e51b815260206004820152602660248201527f4f776e61626c653a206e6577206f776e657220697320746865207a65726f206160448201527f64647265737300000000000000000000000000000000000000000000000000006064820152608401610476565b610488816114b2565b600280546001600160a01b0319166001600160a01b0383169081179091556040517f9a174d577c7665e63298da21ff932b957bb0dc51d46920b0cc1e32f22437d8fd90600090a250565b6040516001600160a01b03831660248201526044810182905261049790849063a9059cbb60e01b906064015b60408051601f198184030181529190526020810180517bffffffffffffffffffffffffffffffffffffffffffffffffffffffff167fffffffff000000000000000000000000000000000000000000000000000000009093169290921790915261158a565b600054600160a01b900460ff1661130e5760405162461bcd60e51b815260206004820152601460248201527f5061757361626c653a206e6f74207061757365640000000000000000000000006044820152606401610476565b6000805460ff60a01b191690557f5db9ee0a495bf2e6ff9c91a7834c1ba4fdd244a5e8aa4e537bd38aeae4b073aa335b6040516001600160a01b03909116815260200160405180910390a1565b6040516001600160a01b03808516602483015283166044820152606481018290526113939085906323b872dd60e01b90608401611251565b50505050565b804710156113e95760405162461bcd60e51b815260206004820152601d60248201527f416464726573733a20696e73756666696369656e742062616c616e63650000006044820152606401610476565b6000826001600160a01b03168260405160006040518083038185875af1925050503d8060008114611436576040519150601f19603f3d011682016040523d82523d6000602084013e61143b565b606091505b50509050806104975760405162461bcd60e51b815260206004820152603a60248201527f416464726573733a20756e61626c6520746f2073656e642076616c75652c207260448201527f6563697069656e74206d617920686176652072657665727465640000000000006064820152608401610476565b600080546001600160a01b038381166001600160a01b0319831681178455604051919092169283917f8be0079c531659141344cd1fd0a4f28419497f9722a3daafe3b4186f6b6457e09190a35050565b600054600160a01b900460ff161561154f5760405162461bcd60e51b815260206004820152601060248201526f14185d5cd8589b194e881c185d5cd95960821b6044820152606401610476565b6000805460ff60a01b1916600160a01b1790557f62e78cea01bee320cd4e420270b5ea74000d11b0c9f74754ebdbfc544b05a25861133e3390565b60006115df826040518060400160405280602081526020017f5361666545524332303a206c6f772d6c6576656c2063616c6c206661696c6564815250856001600160a01b031661166f9092919063ffffffff16565b80519091501561049757808060200190518101906115fd91906118de565b6104975760405162461bcd60e51b815260206004820152602a60248201527f5361666545524332303a204552433230206f7065726174696f6e20646964206e60448201527f6f742073756363656564000000000000000000000000000000000000000000006064820152608401610476565b606061167e8484600085611688565b90505b9392505050565b6060824710156117005760405162461bcd60e51b815260206004820152602660248201527f416464726573733a20696e73756666696369656e742062616c616e636520666f60448201527f722063616c6c00000000000000000000000000000000000000000000000000006064820152608401610476565b6001600160a01b0385163b6117575760405162461bcd60e51b815260206004820152601d60248201527f416464726573733a2063616c6c20746f206e6f6e2d636f6e74726163740000006044820152606401610476565b600080866001600160a01b031685876040516117739190611b8a565b60006040518083038185875af1925050503d80600081146117b0576040519150601f19603f3d011682016040523d82523d6000602084013e6117b5565b606091505b50915091506117c58282866117d0565b979650505050505050565b606083156117df575081611681565b8251156117ef5782518084602001fd5b8160405162461bcd60e51b81526004016104769190611c0c565b60006020828403121561181b57600080fd5b813561168181611d37565b6000806040838503121561183957600080fd5b823561184481611d37565b9150602083013561185481611d37565b809150509250929050565b60008060006060848603121561187457600080fd5b833561187f81611d37565b95602085013595506040909401359392505050565b600080600080608085870312156118aa57600080fd5b84356118b581611d37565b9350602085013592506040850135915060608501356118d381611d37565b939692955090935050565b6000602082840312156118f057600080fd5b815161168181611d4c565b6000806040838503121561190e57600080fd5b825161191981611d4c565b8092505060208084015167ffffffffffffffff8082111561193957600080fd5b818601915086601f83011261194d57600080fd5b81518181111561195f5761195f611d21565b8060051b9150611970848301611c1f565b8181528481019084860184860187018b101561198b57600080fd5b600095505b838610156119ba57805194506119a585611d37565b84835260019590950194918601918601611990565b508096505050505050509250929050565b6000602082840312156119dd57600080fd5b5035919050565b6000602082840312156119f657600080fd5b5051919050565b600080600080600060a08688031215611a1557600080fd5b85359450602086013593506040860135611a2e81611d37565b92506060860135611a3e81611d37565b949793965091946080013592915050565b60008060008060008060c08789031215611a6857600080fd5b8635955060208088013595506040880135611a8281611d37565b94506060880135611a9281611d37565b93506080880135925060a088013567ffffffffffffffff80821115611ab657600080fd5b818a0191508a601f830112611aca57600080fd5b813581811115611adc57611adc611d21565b611aee601f8201601f19168501611c1f565b91508082528b84828501011115611b0457600080fd5b80848401858401376000848284010152508093505050509295509295509295565b600080600060608486031215611b3a57600080fd5b83359250602084013591506040840135611b5381611d4c565b809150509250925092565b60008151808452611b76816020860160208601611c9a565b601f01601f19169290920160200192915050565b60008251611b9c818460208701611c9a565b9190910192915050565b6020808252825182820181905260009190848201906040850190845b81811015611be75783516001600160a01b031683529284019291840191600101611bc2565b50909695505050505050565b82815260406020820152600061167e6040830184611b5e565b6020815260006116816020830184611b5e565b604051601f8201601f1916810167ffffffffffffffff81118282101715611c4857611c48611d21565b604052919050565b600082611c5f57611c5f611d0b565b500490565b6000816000190483118215151615611c7e57611c7e611cf5565b500290565b600082821015611c9557611c95611cf5565b500390565b60005b83811015611cb5578181015183820152602001611c9d565b838111156113935750506000910152565b6000600019821415611cda57611cda611cf5565b5060010190565b600082611cf057611cf0611d0b565b500690565b634e487b7160e01b600052601160045260246000fd5b634e487b7160e01b600052601260045260246000fd5b634e487b7160e01b600052604160045260246000fd5b6001600160a01b038116811461048857600080fd5b801515811461048857600080fdfea164736f6c6343000807000a",
  "linkReferences": {},
  "deployedLinkReferences": {}
}