{
  "_format": "hh-sol-artifact-1",
  "contractName": "ERC20TubeRouter",
  "sourceName": "contracts/v0.2/ERC20TubeRouter.sol",
  "abi": [
    {
      "inputs": [
        {
          "internalType": "contract ITube",
          "name": "_tube",
          "type": "address"
        }
      ],
      "stateMutability": "nonpayable",
      "type": "constructor"
    },
    {
      "anonymous": false,
      "inputs": [
        {
          "indexed": true,
          "internalType": "address",
          "name": "previousOwner",
          "type": "address"
        },
        {
          "indexed": true,
          "internalType": "address",
          "name": "newOwner",
          "type": "address"
        }
      ],
      "name": "OwnershipTransferred",
      "type": "event"
    },
    {
      "anonymous": false,
      "inputs": [
        {
          "indexed": true,
          "internalType": "address",
          "name": "user",
          "type": "address"
        },
        {
          "indexed": true,
          "internalType": "address",
          "name": "token",
          "type": "address"
        },
        {
          "indexed": true,
          "internalType": "uint256",
          "name": "targetTubeID",
          "type": "uint256"
        },
        {
          "indexed": false,
          "internalType": "uint256",
          "name": "amount",
          "type": "uint256"
        }
      ],
      "name": "RelayFeeReceipt",
      "type": "event"
    },
    {
      "inputs": [
        {
          "internalType": "address",
          "name": "_crosschainToken",
          "type": "address"
        },
        {
          "internalType": "uint256",
          "name": "_amount",
          "type": "uint256"
        },
        {
          "internalType": "uint256",
          "name": "_tubeID",
          "type": "uint256"
        },
        {
          "internalType": "address",
          "name": "_recipient",
          "type": "address"
        }
      ],
      "name": "depositTo",
      "outputs": [],
      "stateMutability": "payable",
      "type": "function"
    },
    {
      "inputs": [
        {
          "internalType": "address",
          "name": "_crosschainToken",
          "type": "address"
        },
        {
          "internalType": "uint256",
          "name": "_amount",
          "type": "uint256"
        },
        {
          "internalType": "uint256",
          "name": "_tubeID",
          "type": "uint256"
        },
        {
          "internalType": "address",
          "name": "_recipient",
          "type": "address"
        }
      ],
      "name": "depositToWithToken",
      "outputs": [],
      "stateMutability": "payable",
      "type": "function"
    },
    {
      "inputs": [],
      "name": "feeToken",
      "outputs": [
        {
          "internalType": "address",
          "name": "",
          "type": "address"
        }
      ],
      "stateMutability": "view",
      "type": "function"
    },
    {
      "inputs": [],
      "name": "owner",
      "outputs": [
        {
          "internalType": "address",
          "name": "",
          "type": "address"
        }
      ],
      "stateMutability": "view",
      "type": "function"
    },
    {
      "inputs": [
        {
          "internalType": "uint256",
          "name": "_tubeID",
          "type": "uint256"
        }
      ],
      "name": "relayFee",
      "outputs": [
        {
          "internalType": "uint256",
          "name": "",
          "type": "uint256"
        }
      ],
      "stateMutability": "view",
      "type": "function"
    },
    {
      "inputs": [],
      "name": "renounceOwnership",
      "outputs": [],
      "stateMutability": "nonpayable",
      "type": "function"
    },
    {
      "inputs": [
        {
          "internalType": "address",
          "name": "_feeToken",
          "type": "address"
        }
      ],
      "name": "setFeeToken",
      "outputs": [],
      "stateMutability": "nonpayable",
      "type": "function"
    },
    {
      "inputs": [
        {
          "internalType": "uint256",
          "name": "_tubeID",
          "type": "uint256"
        },
        {
          "internalType": "uint256",
          "name": "_fee",
          "type": "uint256"
        }
      ],
      "name": "setRelayFee",
      "outputs": [],
      "stateMutability": "nonpayable",
      "type": "function"
    },
    {
      "inputs": [
        {
          "internalType": "address",
          "name": "newOwner",
          "type": "address"
        }
      ],
      "name": "transferOwnership",
      "outputs": [],
      "stateMutability": "nonpayable",
      "type": "function"
    },
    {
      "inputs": [],
      "name": "tube",
      "outputs": [
        {
          "internalType": "contract ITube",
          "name": "",
          "type": "address"
        }
      ],
      "stateMutability": "view",
      "type": "function"
    },
    {
      "inputs": [
        {
          "internalType": "address payable",
          "name": "_to",
          "type": "address"
        }
      ],
      "name": "withdrawCoin",
      "outputs": [],
      "stateMutability": "nonpayable",
      "type": "function"
    },
    {
      "inputs": [
        {
          "internalType": "address",
          "name": "_to",
          "type": "address"
        },
        {
          "internalType": "contract IERC20",
          "name": "_token",
          "type": "address"
        }
      ],
      "name": "withdrawToken",
      "outputs": [],
      "stateMutability": "nonpayable",
      "type": "function"
    }
  ],
  "bytecode": "0x608060405234801561001057600080fd5b506040516116c63803806116c683398101604081905261002f916100b1565b61003833610061565b60018055600480546001600160a01b0319166001600160a01b03929092169190911790556100e1565b600080546001600160a01b038381166001600160a01b0319831681178455604051919092169283917f8be0079c531659141344cd1fd0a4f28419497f9722a3daafe3b4186f6b6457e09190a35050565b6000602082840312156100c357600080fd5b81516001600160a01b03811681146100da57600080fd5b9392505050565b6115d6806100f06000396000f3fe6080604052600436106100c75760003560e01c80638da5cb5b11610074578063de20b4481161004e578063de20b448146101e4578063f2fde38b1461021f578063faaee0a71461023f57600080fd5b80638da5cb5b1461019357806397aabf24146101b1578063b71cd60d146101c457600080fd5b80635a73928f116100a55780635a73928f14610121578063647846a514610141578063715018a61461017e57600080fd5b806315cce224146100cc5780633aeac4e1146100ee5780635379a5cb1461010e575b600080fd5b3480156100d857600080fd5b506100ec6100e7366004611406565b61025f565b005b3480156100fa57600080fd5b506100ec610109366004611423565b6102ed565b6100ec61011c36600461145c565b6103e2565b34801561012d57600080fd5b506100ec61013c366004611406565b610755565b34801561014d57600080fd5b50600354610161906001600160a01b031681565b6040516001600160a01b0390911681526020015b60405180910390f35b34801561018a57600080fd5b506100ec6107bc565b34801561019f57600080fd5b506000546001600160a01b0316610161565b6100ec6101bf36600461145c565b610822565b3480156101d057600080fd5b506100ec6101df366004611517565b610ccd565b3480156101f057600080fd5b506102116101ff3660046114e5565b60009081526002602052604090205490565b604051908152602001610175565b34801561022b57600080fd5b506100ec61023a366004611406565b610d39565b34801561024b57600080fd5b50600454610161906001600160a01b031681565b6000546001600160a01b031633146102be5760405162461bcd60e51b815260206004820181905260248201527f4f776e61626c653a2063616c6c6572206973206e6f7420746865206f776e657260448201526064015b60405180910390fd5b6003805473ffffffffffffffffffffffffffffffffffffffff19166001600160a01b0392909216919091179055565b6000546001600160a01b031633146103475760405162461bcd60e51b815260206004820181905260248201527f4f776e61626c653a2063616c6c6572206973206e6f7420746865206f776e657260448201526064016102b5565b6040516370a0823160e01b81523060048201526000906001600160a01b038316906370a082319060240160206040518083038186803b15801561038957600080fd5b505afa15801561039d573d6000803e3d6000fd5b505050506040513d601f19601f820116820180604052508101906103c191906114fe565b905080156103dd576103dd6001600160a01b0383168483610e18565b505050565b600260015414156104355760405162461bcd60e51b815260206004820152601f60248201527f5265656e7472616e637947756172643a207265656e7472616e742063616c6c0060448201526064016102b5565b600260015560006104528360009081526002602052604090205490565b9050600081116104965760405162461bcd60e51b815260206004820152600f60248201526e756e7365742072656c61792066656560881b60448201526064016102b5565b6003546001600160a01b03166104fb57803410156104f65760405162461bcd60e51b815260206004820152601660248201527f696e73756666696369656e742072656c6179206665650000000000000000000060448201526064016102b5565b610513565b600354610513906001600160a01b0316333084610ea8565b60048054604051634acc79ed60e01b81529182018590526000916001600160a01b0390911690634acc79ed9060240160206040518083038186803b15801561055a57600080fd5b505afa15801561056e573d6000803e3d6000fd5b505050506040513d601f19601f8201168201806040525081019061059291906114fe565b90508015610655576000600460009054906101000a90046001600160a01b03166001600160a01b031663a75156526040518163ffffffff1660e01b815260040160206040518083038186803b1580156105ea57600080fd5b505afa1580156105fe573d6000803e3d6000fd5b505050506040513d601f19601f8201168201806040525081019061062291906114c8565b90506106396001600160a01b038216333085610ea8565b600454610653906001600160a01b03838116911688610ee6565b505b61066a6001600160a01b038716333088610ea8565b600454610684906001600160a01b03888116911687610ee6565b60048054604051635379a5cb60e01b81526001600160a01b038981169382019390935260248101889052604481018790528583166064820152911690635379a5cb90608401600060405180830381600087803b1580156106e357600080fd5b505af11580156106f7573d6000803e3d6000fd5b5050505083866001600160a01b0316336001600160a01b03167f6cf4b4ca0bfcad2a221b400542e1c4947041f7b3b106b613eab8a0fa824919d08560405161074191815260200190565b60405180910390a450506001805550505050565b6000546001600160a01b031633146107af5760405162461bcd60e51b815260206004820181905260248201527f4f776e61626c653a2063616c6c6572206973206e6f7420746865206f776e657260448201526064016102b5565b6107b98147611011565b50565b6000546001600160a01b031633146108165760405162461bcd60e51b815260206004820181905260248201527f4f776e61626c653a2063616c6c6572206973206e6f7420746865206f776e657260448201526064016102b5565b610820600061112a565b565b600260015414156108755760405162461bcd60e51b815260206004820152601f60248201527f5265656e7472616e637947756172643a207265656e7472616e742063616c6c0060448201526064016102b5565b600260015560006108928360009081526002602052604090205490565b9050600081116108d65760405162461bcd60e51b815260206004820152600f60248201526e756e7365742072656c61792066656560881b60448201526064016102b5565b6003546001600160a01b031661093b57803410156109365760405162461bcd60e51b815260206004820152601660248201527f696e73756666696369656e742072656c6179206665650000000000000000000060448201526064016102b5565b610953565b600354610953906001600160a01b0316333084610ea8565b6000856001600160a01b0316637f9864f76040518163ffffffff1660e01b815260040160206040518083038186803b15801561098e57600080fd5b505afa1580156109a2573d6000803e3d6000fd5b505050506040513d601f19601f820116820180604052508101906109c691906114c8565b90506001600160a01b038116610a1e5760405162461bcd60e51b815260206004820152600d60248201527f696e76616c696420746f6b656e0000000000000000000000000000000000000060448201526064016102b5565b610a336001600160a01b038216333088610ea8565b610a476001600160a01b0382168787610ee6565b60405163b6b55f2560e01b8152600481018690526001600160a01b0387169063b6b55f2590602401600060405180830381600087803b158015610a8957600080fd5b505af1158015610a9d573d6000803e3d6000fd5b505060048054604051634acc79ed60e01b8152918201889052600093506001600160a01b03169150634acc79ed9060240160206040518083038186803b158015610ae657600080fd5b505afa158015610afa573d6000803e3d6000fd5b505050506040513d601f19601f82011682018060405250810190610b1e91906114fe565b90508015610be1576000600460009054906101000a90046001600160a01b03166001600160a01b031663a75156526040518163ffffffff1660e01b815260040160206040518083038186803b158015610b7657600080fd5b505afa158015610b8a573d6000803e3d6000fd5b505050506040513d601f19601f82011682018060405250810190610bae91906114c8565b9050610bc56001600160a01b038216333085610ea8565b600454610bdf906001600160a01b03838116911689610ee6565b505b600454610bfb906001600160a01b03898116911688610ee6565b60048054604051635379a5cb60e01b81526001600160a01b038a81169382019390935260248101899052604481018890528683166064820152911690635379a5cb90608401600060405180830381600087803b158015610c5a57600080fd5b505af1158015610c6e573d6000803e3d6000fd5b5050505084876001600160a01b0316336001600160a01b03167f6cf4b4ca0bfcad2a221b400542e1c4947041f7b3b106b613eab8a0fa824919d086604051610cb891815260200190565b60405180910390a45050600180555050505050565b6000546001600160a01b03163314610d275760405162461bcd60e51b815260206004820181905260248201527f4f776e61626c653a2063616c6c6572206973206e6f7420746865206f776e657260448201526064016102b5565b60009182526002602052604090912055565b6000546001600160a01b03163314610d935760405162461bcd60e51b815260206004820181905260248201527f4f776e61626c653a2063616c6c6572206973206e6f7420746865206f776e657260448201526064016102b5565b6001600160a01b038116610e0f5760405162461bcd60e51b815260206004820152602660248201527f4f776e61626c653a206e6577206f776e657220697320746865207a65726f206160448201527f646472657373000000000000000000000000000000000000000000000000000060648201526084016102b5565b6107b98161112a565b6040516001600160a01b0383166024820152604481018290526103dd90849063a9059cbb60e01b906064015b60408051601f198184030181529190526020810180517bffffffffffffffffffffffffffffffffffffffffffffffffffffffff167fffffffff0000000000000000000000000000000000000000000000000000000090931692909217909152611187565b6040516001600160a01b0380851660248301528316604482015260648101829052610ee09085906323b872dd60e01b90608401610e44565b50505050565b801580610f6f5750604051636eb1769f60e11b81523060048201526001600160a01b03838116602483015284169063dd62ed3e9060440160206040518083038186803b158015610f3557600080fd5b505afa158015610f49573d6000803e3d6000fd5b505050506040513d601f19601f82011682018060405250810190610f6d91906114fe565b155b610fe15760405162461bcd60e51b815260206004820152603660248201527f5361666545524332303a20617070726f76652066726f6d206e6f6e2d7a65726f60448201527f20746f206e6f6e2d7a65726f20616c6c6f77616e63650000000000000000000060648201526084016102b5565b6040516001600160a01b0383166024820152604481018290526103dd90849063095ea7b360e01b90606401610e44565b804710156110615760405162461bcd60e51b815260206004820152601d60248201527f416464726573733a20696e73756666696369656e742062616c616e636500000060448201526064016102b5565b6000826001600160a01b03168260405160006040518083038185875af1925050503d80600081146110ae576040519150601f19603f3d011682016040523d82523d6000602084013e6110b3565b606091505b50509050806103dd5760405162461bcd60e51b815260206004820152603a60248201527f416464726573733a20756e61626c6520746f2073656e642076616c75652c207260448201527f6563697069656e74206d6179206861766520726576657274656400000000000060648201526084016102b5565b600080546001600160a01b0383811673ffffffffffffffffffffffffffffffffffffffff19831681178455604051919092169283917f8be0079c531659141344cd1fd0a4f28419497f9722a3daafe3b4186f6b6457e09190a35050565b60006111dc826040518060400160405280602081526020017f5361666545524332303a206c6f772d6c6576656c2063616c6c206661696c6564815250856001600160a01b031661126c9092919063ffffffff16565b8051909150156103dd57808060200190518101906111fa91906114a6565b6103dd5760405162461bcd60e51b815260206004820152602a60248201527f5361666545524332303a204552433230206f7065726174696f6e20646964206e60448201527f6f7420737563636565640000000000000000000000000000000000000000000060648201526084016102b5565b606061127b8484600085611285565b90505b9392505050565b6060824710156112fd5760405162461bcd60e51b815260206004820152602660248201527f416464726573733a20696e73756666696369656e742062616c616e636520666f60448201527f722063616c6c000000000000000000000000000000000000000000000000000060648201526084016102b5565b6001600160a01b0385163b6113545760405162461bcd60e51b815260206004820152601d60248201527f416464726573733a2063616c6c20746f206e6f6e2d636f6e747261637400000060448201526064016102b5565b600080866001600160a01b031685876040516113709190611539565b60006040518083038185875af1925050503d80600081146113ad576040519150601f19603f3d011682016040523d82523d6000602084013e6113b2565b606091505b50915091506113c28282866113cd565b979650505050505050565b606083156113dc57508161127e565b8251156113ec5782518084602001fd5b8160405162461bcd60e51b81526004016102b59190611555565b60006020828403121561141857600080fd5b813561127e816115b4565b6000806040838503121561143657600080fd5b8235611441816115b4565b91506020830135611451816115b4565b809150509250929050565b6000806000806080858703121561147257600080fd5b843561147d816115b4565b93506020850135925060408501359150606085013561149b816115b4565b939692955090935050565b6000602082840312156114b857600080fd5b8151801515811461127e57600080fd5b6000602082840312156114da57600080fd5b815161127e816115b4565b6000602082840312156114f757600080fd5b5035919050565b60006020828403121561151057600080fd5b5051919050565b6000806040838503121561152a57600080fd5b50508035926020909101359150565b6000825161154b818460208701611588565b9190910192915050565b6020815260008251806020840152611574816040850160208701611588565b601f01601f19169190910160400192915050565b60005b838110156115a357818101518382015260200161158b565b83811115610ee05750506000910152565b6001600160a01b03811681146107b957600080fdfea164736f6c6343000807000a",
  "linkReferences": {},
  "deployedLinkReferences": {}
}