{
  "_format": "hh-sol-artifact-1",
  "contractName": "TestimonyDAO",
  "sourceName": "contracts/TestimonyDAO.sol",
  "abi": [
    {
      "anonymous": false,
      "inputs": [
        {
          "indexed": true,
          "internalType": "address",
          "name": "witness",
          "type": "address"
        },
        {
          "indexed": true,
          "internalType": "bytes32",
          "name": "key",
          "type": "bytes32"
        },
        {
          "indexed": false,
          "internalType": "bytes",
          "name": "testimony",
          "type": "bytes"
        }
      ],
      "name": "Testimony",
      "type": "event"
    },
    {
      "inputs": [
        {
          "internalType": "bytes32",
          "name": "key",
          "type": "bytes32"
        },
        {
          "internalType": "bytes",
          "name": "value",
          "type": "bytes"
        }
      ],
      "name": "addTestimony",
      "outputs": [],
      "stateMutability": "nonpayable",
      "type": "function"
    }
  ],
  "bytecode": "0x608060405234801561001057600080fd5b5061017a806100206000396000f3fe608060405234801561001057600080fd5b506004361061002b5760003560e01c8063513bd02114610030575b600080fd5b6100a76004803603604081101561004657600080fd5b8135919081019060408101602082013564010000000081111561006857600080fd5b82018360208201111561007a57600080fd5b8035906020019184600183028401116401000000008311171561009c57600080fd5b5090925090506100a9565b005b823373ffffffffffffffffffffffffffffffffffffffff167f738e5ba8c1c11648ac3cb5c81364c2ed48f5af4b2937b323a0e1f4cce15801cf848460405180806020018281038252848482818152602001925080828437600083820152604051601f9091017fffffffffffffffffffffffffffffffffffffffffffffffffffffffffffffffe0169092018290039550909350505050a350505056fea264697066735822122035901bb60fca2363e7395122d0c0d0a0d1d707b26886a0163c3b7fe0fc2a23f364736f6c63430007030033",
  "linkReferences": {},
  "deployedLinkReferences": {}
}