{
  "_format": "hh-sol-artifact-1",
  "contractName": "ValidatorRegistry",
  "sourceName": "contracts/v0.1/ValidatorRegistry.sol",
  "abi": [
    {
      "anonymous": false,
      "inputs": [
        {
          "indexed": true,
          "internalType": "address",
          "name": "validator",
          "type": "address"
        },
        {
          "indexed": true,
          "internalType": "uint256",
          "name": "genre",
          "type": "uint256"
        },
        {
          "indexed": false,
          "internalType": "string",
          "name": "uri",
          "type": "string"
        }
      ],
      "name": "Registration",
      "type": "event"
    },
    {
      "inputs": [
        {
          "internalType": "address",
          "name": "",
          "type": "address"
        }
      ],
      "name": "files",
      "outputs": [
        {
          "internalType": "address",
          "name": "validator",
          "type": "address"
        },
        {
          "internalType": "uint256",
          "name": "genre",
          "type": "uint256"
        },
        {
          "internalType": "string",
          "name": "uri",
          "type": "string"
        }
      ],
      "stateMutability": "view",
      "type": "function"
    },
    {
      "inputs": [
        {
          "internalType": "address",
          "name": "_validator",
          "type": "address"
        }
      ],
      "name": "getFile",
      "outputs": [
        {
          "internalType": "uint256",
          "name": "",
          "type": "uint256"
        },
        {
          "internalType": "string",
          "name": "",
          "type": "string"
        }
      ],
      "stateMutability": "view",
      "type": "function"
    },
    {
      "inputs": [
        {
          "internalType": "uint256",
          "name": "_genre",
          "type": "uint256"
        },
        {
          "internalType": "string",
          "name": "_uri",
          "type": "string"
        }
      ],
      "name": "register",
      "outputs": [],
      "stateMutability": "nonpayable",
      "type": "function"
    }
  ],
  "bytecode": "0x608060405234801561001057600080fd5b50610581806100206000396000f3fe608060405234801561001057600080fd5b50600436106100415760003560e01c80630b87c1e01461004657806339c637df14610070578063a00fd3c814610092575b600080fd5b6100596100543660046103bf565b6100a7565b604051610067929190610518565b60405180910390f35b61008361007e3660046103bf565b610165565b604051610067939291906104b8565b6100a56100a03660046103ef565b61021a565b005b6001600160a01b0381166000908152602081905260408120600181015460028201805460609392919081906100db90610539565b80601f016020809104026020016040519081016040528092919081815260200182805461010790610539565b80156101545780601f1061012957610100808354040283529160200191610154565b820191906000526020600020905b81548152906001019060200180831161013757829003601f168201915b505050505090509250925050915091565b6000602081905290815260409020805460018201546002830180546001600160a01b0390931693919261019790610539565b80601f01602080910402602001604051908101604052809291908181526020018280546101c390610539565b80156102105780601f106101e557610100808354040283529160200191610210565b820191906000526020600020905b8154815290600101906020018083116101f357829003601f168201915b5050505050905083565b6040518060600160405280336001600160a01b0316815260200184815260200183838080601f01602080910402602001604051908101604052809392919081815260200183838082843760009201829052509390945250503381526020818152604091829020845181547fffffffffffffffffffffffff0000000000000000000000000000000000000000166001600160a01b039091161781558482015160018201559184015180519293506102d99260028501929190910190610326565b5090505082336001600160a01b03167feee9ae735c82c3067b614d28068eed722045ff14935ee256c8654db2ff75c78284846040516103199291906104e9565b60405180910390a3505050565b82805461033290610539565b90600052602060002090601f016020900481019282610354576000855561039a565b82601f1061036d57805160ff191683800117855561039a565b8280016001018555821561039a579182015b8281111561039a57825182559160200191906001019061037f565b506103a69291506103aa565b5090565b5b808211156103a657600081556001016103ab565b6000602082840312156103d157600080fd5b81356001600160a01b03811681146103e857600080fd5b9392505050565b60008060006040848603121561040457600080fd5b83359250602084013567ffffffffffffffff8082111561042357600080fd5b818601915086601f83011261043757600080fd5b81358181111561044657600080fd5b87602082850101111561045857600080fd5b6020830194508093505050509250925092565b6000815180845260005b8181101561049157602081850181015186830182015201610475565b818111156104a3576000602083870101525b50601f01601f19169290920160200192915050565b6001600160a01b03841681528260208201526060604082015260006104e0606083018461046b565b95945050505050565b60208152816020820152818360408301376000818301604090810191909152601f909201601f19160101919050565b828152604060208201526000610531604083018461046b565b949350505050565b600181811c9082168061054d57607f821691505b6020821081141561056e57634e487b7160e01b600052602260045260246000fd5b5091905056fea164736f6c6343000807000a",
  "linkReferences": {},
  "deployedLinkReferences": {}
}