{
  "_format": "hh-sol-artifact-1",
  "contractName": "VerifierV2",
  "sourceName": "contracts/v0.2/VerifierV2.sol",
  "abi": [
    {
      "anonymous": false,
      "inputs": [
        {
          "indexed": true,
          "internalType": "address",
          "name": "previousOwner",
          "type": "address"
        },
        {
          "indexed": true,
          "internalType": "address",
          "name": "newOwner",
          "type": "address"
        }
      ],
      "name": "OwnershipTransferred",
      "type": "event"
    },
    {
      "anonymous": false,
      "inputs": [
        {
          "indexed": false,
          "internalType": "address",
          "name": "account",
          "type": "address"
        }
      ],
      "name": "Paused",
      "type": "event"
    },
    {
      "anonymous": false,
      "inputs": [
        {
          "indexed": false,
          "internalType": "address",
          "name": "account",
          "type": "address"
        }
      ],
      "name": "Unpaused",
      "type": "event"
    },
    {
      "anonymous": false,
      "inputs": [
        {
          "indexed": true,
          "internalType": "address",
          "name": "validator",
          "type": "address"
        }
      ],
      "name": "ValidatorAdded",
      "type": "event"
    },
    {
      "anonymous": false,
      "inputs": [
        {
          "indexed": true,
          "internalType": "address",
          "name": "validator",
          "type": "address"
        }
      ],
      "name": "ValidatorRemoved",
      "type": "event"
    },
    {
      "inputs": [],
      "name": "VALIDATOR_LIMIT",
      "outputs": [
        {
          "internalType": "uint8",
          "name": "",
          "type": "uint8"
        }
      ],
      "stateMutability": "view",
      "type": "function"
    },
    {
      "inputs": [
        {
          "internalType": "address[]",
          "name": "_validators",
          "type": "address[]"
        }
      ],
      "name": "addAll",
      "outputs": [],
      "stateMutability": "nonpayable",
      "type": "function"
    },
    {
      "inputs": [
        {
          "internalType": "uint256",
          "name": "offset",
          "type": "uint256"
        },
        {
          "internalType": "uint8",
          "name": "limit",
          "type": "uint8"
        }
      ],
      "name": "get",
      "outputs": [
        {
          "internalType": "uint256",
          "name": "count_",
          "type": "uint256"
        },
        {
          "internalType": "address[]",
          "name": "validators_",
          "type": "address[]"
        }
      ],
      "stateMutability": "view",
      "type": "function"
    },
    {
      "inputs": [],
      "name": "owner",
      "outputs": [
        {
          "internalType": "address",
          "name": "",
          "type": "address"
        }
      ],
      "stateMutability": "view",
      "type": "function"
    },
    {
      "inputs": [],
      "name": "paused",
      "outputs": [
        {
          "internalType": "bool",
          "name": "",
          "type": "bool"
        }
      ],
      "stateMutability": "view",
      "type": "function"
    },
    {
      "inputs": [
        {
          "internalType": "address[]",
          "name": "_validators",
          "type": "address[]"
        }
      ],
      "name": "removeAll",
      "outputs": [],
      "stateMutability": "nonpayable",
      "type": "function"
    },
    {
      "inputs": [],
      "name": "renounceOwnership",
      "outputs": [],
      "stateMutability": "nonpayable",
      "type": "function"
    },
    {
      "inputs": [],
      "name": "size",
      "outputs": [
        {
          "internalType": "uint256",
          "name": "",
          "type": "uint256"
        }
      ],
      "stateMutability": "view",
      "type": "function"
    },
    {
      "inputs": [
        {
          "internalType": "address",
          "name": "newOwner",
          "type": "address"
        }
      ],
      "name": "transferOwnership",
      "outputs": [],
      "stateMutability": "nonpayable",
      "type": "function"
    },
    {
      "inputs": [
        {
          "internalType": "uint256",
          "name": "",
          "type": "uint256"
        }
      ],
      "name": "validators",
      "outputs": [
        {
          "internalType": "address",
          "name": "",
          "type": "address"
        }
      ],
      "stateMutability": "view",
      "type": "function"
    },
    {
      "inputs": [
        {
          "internalType": "bytes32",
          "name": "_key",
          "type": "bytes32"
        },
        {
          "internalType": "bytes",
          "name": "_signatures",
          "type": "bytes"
        }
      ],
      "name": "verify",
      "outputs": [
        {
          "internalType": "bool",
          "name": "isValid_",
          "type": "bool"
        },
        {
          "internalType": "address[]",
          "name": "validators_",
          "type": "address[]"
        }
      ],
      "stateMutability": "view",
      "type": "function"
    }
  ],
  "bytecode": "0x608060405234801561001057600080fd5b5061001a3361002c565b6000805460ff60a01b1916905561007c565b600080546001600160a01b038381166001600160a01b0319831681178455604051919092169283917f8be0079c531659141344cd1fd0a4f28419497f9722a3daafe3b4186f6b6457e09190a35050565b6110218061008b6000396000f3fe608060405234801561001057600080fd5b50600436106100c95760003560e01c80635c975abb11610081578063949d225d1161005b578063949d225d1461019b578063bf0cde39146101ac578063f2fde38b146101cd57600080fd5b80635c975abb14610165578063715018a6146101825780638da5cb5b1461018a57600080fd5b806335aa2e44116100b257806335aa2e441461010d5780633e5933fe14610138578063539152ec1461014b57600080fd5b806322063ef9146100ce578063258ae582146100e3575b600080fd5b6100e16100dc366004610c96565b6101e0565b005b6100f66100f1366004610d4a565b610450565b604051610104929190610e7c565b60405180910390f35b61012061011b366004610de9565b610690565b6040516001600160a01b039091168152602001610104565b6100e1610146366004610c96565b6106ba565b610153603281565b60405160ff9091168152602001610104565b600054600160a01b900460ff166040519015158152602001610104565b6100e16108f5565b6000546001600160a01b0316610120565b600154604051908152602001610104565b6101bf6101ba366004610e02565b61095b565b604051610104929190610e9f565b6100e16101db366004610c7b565b610a4b565b6000546001600160a01b0316331461023f5760405162461bcd60e51b815260206004820181905260248201527f4f776e61626c653a2063616c6c6572206973206e6f7420746865206f776e657260448201526064015b60405180910390fd5b600054600160a01b900460ff166102985760405162461bcd60e51b815260206004820152601460248201527f5061757361626c653a206e6f74207061757365640000000000000000000000006044820152606401610236565b80516001546032916102a991610ee9565b106102f65760405162461bcd60e51b815260206004820152601760248201527f686974206d61782076616c696461746f72206c696d69740000000000000000006044820152606401610236565b6000805b825181101561044b5782818151811061031557610315610fe8565b6020026020010151915060006001600160a01b0316826001600160a01b031614156103825760405162461bcd60e51b815260206004820152601160248201527f696e76616c69642076616c696461746f720000000000000000000000000000006044820152606401610236565b6001600160a01b03821660009081526002602052604090205460ff16156103a857610439565b6001805480820182557fb10e2d527612073b26eecdfd717e6a320cf44b4afac2b0732d9fcbe2b7fa0cf60180546001600160a01b0319166001600160a01b0385169081179091559054600082815260026020526040808220805460ff191660ff9094169390931790925590517fe366c1c0452ed8eec96861e9e54141ebff23c9ec89fe27b996b45f5ec38849879190a25b8061044381610fa1565b9150506102fa565b505050565b60008054606090600160a01b900460ff16156104ae5760405162461bcd60e51b815260206004820152601060248201527f5061757361626c653a20706175736564000000000000000000000000000000006044820152606401610236565b6000604184516104be9190610f26565b90506104c8610c40565b6000808367ffffffffffffffff8111156104e4576104e4610ffe565b60405190808252806020026020018201604052801561050d578160200160208202803683370190505b50945060005b8481101561066657610530898961052b846041610f48565b610b2d565b6001600160a01b03811660009081526002602052604090205490935060ff1691508161059e5760405162461bcd60e51b815260206004820152601160248201527f696e76616c69642076616c696461746f720000000000000000000000000000006044820152606401610236565b838260ff16603281106105b3576105b3610fe8565b6020020151156106055760405162461bcd60e51b815260206004820152601360248201527f6475706c69636174652076616c696461746f72000000000000000000000000006044820152606401610236565b6001848360ff166032811061061c5761061c610fe8565b911515602090920201528551839087908390811061063c5761063c610fe8565b6001600160a01b03909216602092830291909101909101528061065e81610fa1565b915050610513565b50600154610675906002610f48565b8551610682906003610f48565b119550505050509250929050565b600181815481106106a057600080fd5b6000918252602090912001546001600160a01b0316905081565b6000546001600160a01b031633146107145760405162461bcd60e51b815260206004820181905260248201527f4f776e61626c653a2063616c6c6572206973206e6f7420746865206f776e65726044820152606401610236565b600054600160a01b900460ff1661076d5760405162461bcd60e51b815260206004820152601460248201527f5061757361626c653a206e6f74207061757365640000000000000000000000006044820152606401610236565b60008080805b84518110156108ee5784818151811061078e5761078e610fe8565b6020908102919091018101516001600160a01b0381166000908152600290925260409091205490945060ff169150816107c6576108dc565b600180546107d5908290610f67565b815481106107e5576107e5610fe8565b6000918252602090912001546001600160a01b031692508260016108098185610f7e565b60ff168154811061081c5761081c610fe8565b600091825260208083209190910180546001600160a01b0319166001600160a01b039485161790559185168152600290915260409020805460ff191660ff8416179055600180548061087057610870610fd2565b60008281526020808220830160001990810180546001600160a01b03191690559092019092556001600160a01b03861680835260029091526040808320805460ff191690555190917fe1434e25d6611e0db941968fdc97811c982ac1602e951637d206f5fdda9dd8f191a25b806108e681610fa1565b915050610773565b5050505050565b6000546001600160a01b0316331461094f5760405162461bcd60e51b815260206004820181905260248201527f4f776e61626c653a2063616c6c6572206973206e6f7420746865206f776e65726044820152606401610236565b6109596000610bf0565b565b600154606060ff831667ffffffffffffffff81111561097c5761097c610ffe565b6040519080825280602002602001820160405280156109a5578160200160208202803683370190505b50905060005b8360ff16811015610a43576001546109c38287610ee9565b106109cd57610a43565b60016109d98287610ee9565b815481106109e9576109e9610fe8565b9060005260206000200160009054906101000a90046001600160a01b0316828281518110610a1957610a19610fe8565b6001600160a01b039092166020928302919091019091015280610a3b81610fa1565b9150506109ab565b509250929050565b6000546001600160a01b03163314610aa55760405162461bcd60e51b815260206004820181905260248201527f4f776e61626c653a2063616c6c6572206973206e6f7420746865206f776e65726044820152606401610236565b6001600160a01b038116610b215760405162461bcd60e51b815260206004820152602660248201527f4f776e61626c653a206e6577206f776e657220697320746865207a65726f206160448201527f64647265737300000000000000000000000000000000000000000000000000006064820152608401610236565b610b2a81610bf0565b50565b8181016020810151604082015160609092015160009290831a601b811015610b5d57610b5a601b82610f01565b90505b8060ff16601b14158015610b7557508060ff16601c14155b15610b865760009350505050610be9565b60408051600081526020810180835289905260ff831691810191909152606081018490526080810183905260019060a0016020604051602081039080840390855afa158015610bd9573d6000803e3d6000fd5b5050506020604051035193505050505b9392505050565b600080546001600160a01b038381166001600160a01b0319831681178455604051919092169283917f8be0079c531659141344cd1fd0a4f28419497f9722a3daafe3b4186f6b6457e09190a35050565b6040518061064001604052806032906020820280368337509192915050565b80356001600160a01b0381168114610c7657600080fd5b919050565b600060208284031215610c8d57600080fd5b610be982610c5f565b60006020808385031215610ca957600080fd5b823567ffffffffffffffff80821115610cc157600080fd5b818501915085601f830112610cd557600080fd5b813581811115610ce757610ce7610ffe565b8060051b9150610cf8848301610eb8565b8181528481019084860184860187018a1015610d1357600080fd5b600095505b83861015610d3d57610d2981610c5f565b835260019590950194918601918601610d18565b5098975050505050505050565b60008060408385031215610d5d57600080fd5b8235915060208084013567ffffffffffffffff80821115610d7d57600080fd5b818601915086601f830112610d9157600080fd5b813581811115610da357610da3610ffe565b610db5601f8201601f19168501610eb8565b91508082528784828501011115610dcb57600080fd5b80848401858401376000848284010152508093505050509250929050565b600060208284031215610dfb57600080fd5b5035919050565b60008060408385031215610e1557600080fd5b82359150602083013560ff81168114610e2d57600080fd5b809150509250929050565b600081518084526020808501945080840160005b83811015610e715781516001600160a01b031687529582019590820190600101610e4c565b509495945050505050565b8215158152604060208201526000610e976040830184610e38565b949350505050565b828152604060208201526000610e976040830184610e38565b604051601f8201601f1916810167ffffffffffffffff81118282101715610ee157610ee1610ffe565b604052919050565b60008219821115610efc57610efc610fbc565b500190565b600060ff821660ff84168060ff03821115610f1e57610f1e610fbc565b019392505050565b600082610f4357634e487b7160e01b600052601260045260246000fd5b500490565b6000816000190483118215151615610f6257610f62610fbc565b500290565b600082821015610f7957610f79610fbc565b500390565b600060ff821660ff841680821015610f9857610f98610fbc565b90039392505050565b6000600019821415610fb557610fb5610fbc565b5060010190565b634e487b7160e01b600052601160045260246000fd5b634e487b7160e01b600052603160045260246000fd5b634e487b7160e01b600052603260045260246000fd5b634e487b7160e01b600052604160045260246000fdfea164736f6c6343000807000a",
  "linkReferences": {},
  "deployedLinkReferences": {}
}